:020000040000fa
:080000000001040000000000f3
:020000040000fa
:04000800d001000023
:020000040000fa
:04000c00d00100001f
:020000040000fa
:04001000d00100001b
:020000040000fa
:04001400d001000017
:020000040000fa
:04001800d001000013
:020000040000fa
:04001c00d00100000f
:020000040000fa
:04002000d00100000b
:020000040000fa
:04002400d001000007
:020000040000fa
:04002800c80100000b
:020000040000fa
:04002c00d0010000ff
:020000040000fa
:04003000d0010000fb
:020000040000fa
:040034006a0300005b
:020000040000fa
:04003800d0010000f3
:020000040000fa
:04003c00d0010000ef
:020000040000fa
:04004000d0010000eb
:020000040000fa
:04004400d0010000e7
:020000040000fa
:04004800d0010000e3
:020000040000fa
:04004c00d0010000df
:020000040000fa
:04005000d0010000db
:020000040000fa
:04005400d0010000d7
:020000040000fa
:04005800d0010000d3
:020000040000fa
:04005c00d0010000cf
:020000040000fa
:04006000d0010000cb
:020000040000fa
:04006400d0010000c7
:020000040000fa
:04006800d0010000c3
:020000040000fa
:04006c00d0010000bf
:020000040000fa
:04007000d0010000bb
:020000040000fa
:04007400d0010000b7
:020000040000fa
:04007800d0010000b3
:020000040000fa
:04007c00d0010000af
:020000040000fa
:04008000d0010000ab
:020000040000fa
:04008400d0010000a7
:020000040000fa
:04008800d0010000a3
:020000040000fa
:04008c00d00100009f
:020000040000fa
:04009000d00100009b
:020000040000fa
:04009400d001000097
:020000040000fa
:04009800d001000093
:020000040000fa
:04009c00d00100008f
:020000040000fa
:0400a000d00100008b
:020000040000fa
:0400a400d001000087
:020000040000fa
:0400a800d001000083
:020000040000fa
:0400ac00d00100007f
:020000040000fa
:0400b000d00100007b
:020000040000fa
:0400b400d001000077
:020000040000fa
:0400b800d001000073
:020000040000fa
:0400bc00d00100006f
:020000040000fa
:0400c000d00100006b
:020000040000fa
:0400c400d001000067
:020000040000fa
:0400c800d001000063
:020000040000fa
:0400cc00d00100005f
:020000040000fa
:0400d000d00100005b
:020000040000fa
:0400d400d001000057
:020000040000fa
:0400d800d001000053
:020000040000fa
:04010800d001000022
:020000040000fa
:04010c00d00100001e
:020000040000fa
:04011000d00100001a
:020000040000fa
:04011400d001000016
:020000040000fa
:04011800d001000012
:020000040000fa
:04011c00d00100000e
:020000040000fa
:04012000d00100000a
:020000040000fa
:04012400d001000006
:020000040000fa
:04012800c80100000a
:020000040000fa
:04012c00d0010000fe
:020000040000fa
:04013000d0010000fa
:020000040000fa
:040134006a0300005a
:020000040000fa
:04013800d0010000f2
:020000040000fa
:04013c00d0010000ee
:020000040000fa
:04014000d0010000ea
:020000040000fa
:04014400d0010000e6
:020000040000fa
:04014800d0010000e2
:020000040000fa
:04014c00d0010000de
:020000040000fa
:04015000d0010000da
:020000040000fa
:04015400d0010000d6
:020000040000fa
:04015800d0010000d2
:020000040000fa
:04015c00d0010000ce
:020000040000fa
:04016000d0010000ca
:020000040000fa
:04016400d0010000c6
:020000040000fa
:04016800d0010000c2
:020000040000fa
:04016c00d0010000be
:020000040000fa
:04017000d0010000ba
:020000040000fa
:04017400d0010000b6
:020000040000fa
:04017800d0010000b2
:020000040000fa
:04017c00d0010000ae
:020000040000fa
:04018000d0010000aa
:020000040000fa
:04018400d0010000a6
:020000040000fa
:04018800d0010000a2
:020000040000fa
:04018c00d00100009e
:020000040000fa
:04019000d00100009a
:020000040000fa
:04019400d001000096
:020000040000fa
:04019800d001000092
:020000040000fa
:04019c00d00100008e
:020000040000fa
:0401a000d00100008a
:020000040000fa
:0401a400d001000086
:020000040000fa
:0401a800d001000082
:020000040000fa
:0401ac00d00100007e
:020000040000fa
:0401b000d00100007a
:020000040000fa
:0401b400d001000076
:020000040000fa
:0401b800d001000072
:020000040000fa
:0401bc00d00100006e
:020000040000fa
:0401c000d00100006a
:020000040000fa
:0401c400d001000066
:020000040000fa
:0401c800d001000062
:020000040000fa
:0401cc00d00100005e
:020000040000fa
:0401d000d00100005a
:020000040000fa
:0401d400d001000056
:020000040000fa
:0401d800d001000052
:020000040000fa
:100200006f8120000eff20000e018800000000001a
:10021000000020000000e000020032000001200089
:1002200020028800140007005f0007000000e000c3
:1002300003003a00803f2000010020000200370048
:100240000000200001002000810f7000010032003a
:1002500014000700000020000000e000020032004f
:100260000000020000000000de01020000000000ab
:100270000040da000000fe004440a9008000200099
:100280000000e0000300320000002000a001880010
:100290004440a800000006008a1f78008b1f7800e9
:1002a0000000060091018800800478000000eb0047
:1002b0001a003700e284440032a0b4009905ba0065
:1002c000e284440032a0b4009906ba00e2844400fb
:1002d00032a0b4000006eb00476fde00fd07b2005d
:1002e000636ce10003003a00ebff07000000eb0045
:1002f0000a003700606ce10004003a00005deb008a
:100300008b05e900fdff3e00040037006168e10055
:10031000010032000086eb000b00070019c7ba008d
:100320001905ba000e04e00003003a000a00e000dc
:10033000e0ff3a0000000600fe07b2009e018800c0
:100340008a047800f5ff3700395dba008b05e900b3
:100350000c003200295dba008b05e900080032006c
:100360000c00e00003003a00e284440032a0b40034
:10037000f5ff370019ddba008b05e900faff3a00f6
:100380008904e800e184440032a0b40000000600c3
:100390000000fa008460a9000080fa000040060016
:0c03a0000040da000000fe000000050034
:020000040000fa
:1003ac00524500004c4f00004a3a0000000000008b
:020000040000fa
:1003bc000000fa004a0007002e000700400007006a
:1003cc00ea000700a20007008c000700500820007c
:1003dc0074000700601d280062000700330007004e
:1003ec0005e1a80085000700400c20006d00070007
:1003fc0050408000004078000043b0000ce8b7008b
:10040c0040408000004078000043b0000de8b70089
:10041c00a0c3b3000ee8b700304080000040780065
:10042c000043b0000fe8b700204080000040780087
:10043c000043b00010e8b700a0c3b30011e8b70048
:10044c0010408000004078000043b00012e8b70074
:10045c0000408000004078000043b00013e8b70073
:10046c001468ef00c08020003e0007000000000070
:10047c00dcff37000000fa0020002000504088000c
:10048c0030002000404088005000200030408800a0
:10049c009000200020408800500020001040880070
:1004ac000028ef000080fa00000006000000fa00af
:1004bc008460a9008c60a8000080fa00000006008f
:1004cc000000fa000021ef0000002800100888004e
:1004dc0020002000200888000080fa0000000600a0
:1004ec000000fa00ce22ef0000000000d022ef0046
:1004fc0000000000cda2a80000000000cdc2a800a2
:10050c0000000000d422ef0000000000d622ef0013
:10051c0000000000d302a90000000000e022ef0060
:10052c0000000000e222ef0000000000de82a900c3
:10053c0000000000dea2a90000000000c822ef00ad
:10054c0000000000ca22ef0000000000c622ef00ed
:10055c00000000000080eb00401588000080fa00cd
:10056c0000000600801f7800811f78008000780052
:10057c000000eb00314078000004e000060032007f
:10058c000403020000000000ee0202000000000064
:10059c00c002040000000000cf0078004f0078007b
:1005ac0000000600e082a90000000000e0a2a90003
:1005bc0000000000d502a80000000000c8e2b7004f
:1005cc0000000000d502a900000000000000060099
:1005dc00e082a80000000000e0a2a90000000000da
:1005ec00d502a80000000000c8e2b700000000001f
:1005fc00d502a9000000000000000600c602f800a9
:10060c00801f7800f00f2000c622b7000000000009
:10061c00e082a90000000000e0a2a8000000000099
:10062c00d502a80000000000c8e2af001a030400c5
:10063c0000000000d502a90000000000e0a2a90003
:10064c00000000004f007800c602f9000000060010
:10065c000200080005000000d603020000000000a4
:10066c0000032000d802020000000000000000007f
:10067c00811f7800000000008000eb0004000800df
:10068c000700000004030200000000005e030200eb
:10069c00000000001100b000d802020000000000b1
:1006ac0000000000cf0078000000000000000600f1
:1006bc0001600100800305008000050010000500aa
:1006cc0060000500c0000500801f78000028ec00c9
:1006dc00004080006a00e10021003a000028ef0091
:1006ec000228ec00104080006600e1001c003a007b
:1006fc000228ef000428ec00204080006a00e10092
:10070c0017003a000428ef000628ec003040800067
:10071c006600e10012003a000628ef0020002000dd
:10072c000a48e300060032000828ec004040800034
:10073c006a00e1000a003a000828ef000a28ec00e1
:10074c000828ec00404080006400e10004003a00fe
:10075c000828ef000a28ef00b60304000000000090
:10076c008460a9004f00780000400600801f7800cc
:10077c00811f7800821f7800600420007105200022
:10078c002274200000497800014978004227a80013
:10079c004f017800cf0078004f0078000000060071
:1007ac00801f7800000028000000e900feff3a00de
:1007bc004f00780000000600801f7800811f780031
:1007cc00a10020000000eb000000e900feff3a0051
:1007dc008100e900fbff3a00cf0078004f00780061
:0407ec000000060003
:020000040000fa
:1007f00000080000160000000000000000000000db
:020000040000fa
:0200000401f009
:04000000e0b9000063
:020000040000fa
:0200000401f009
:04000400ff7f00007a
:020000040000fa
:0200000401f009
:04000800feff0000f7
:020000040000fa
:0200000401f009
:04001400ffff0000ea
:00000001FF
